{
  "_format": "hh-sol-artifact-1",
  "contractName": "Swaggers",
  "sourceName": "contracts/Swaggers.sol",
  "abi": [
    {
      "inputs": [],
      "stateMutability": "nonpayable",
      "type": "constructor"
    },
    {
      "anonymous": false,
      "inputs": [
        {
          "indexed": true,
          "internalType": "address",
          "name": "owner",
          "type": "address"
        },
        {
          "indexed": true,
          "internalType": "address",
          "name": "approved",
          "type": "address"
        },
        {
          "indexed": true,
          "internalType": "uint256",
          "name": "tokenId",
          "type": "uint256"
        }
      ],
      "name": "Approval",
      "type": "event"
    },
    {
      "anonymous": false,
      "inputs": [
        {
          "indexed": true,
          "internalType": "address",
          "name": "owner",
          "type": "address"
        },
        {
          "indexed": true,
          "internalType": "address",
          "name": "operator",
          "type": "address"
        },
        {
          "indexed": false,
          "internalType": "bool",
          "name": "approved",
          "type": "bool"
        }
      ],
      "name": "ApprovalForAll",
      "type": "event"
    },
    {
      "anonymous": false,
      "inputs": [
        {
          "indexed": true,
          "internalType": "address",
          "name": "from",
          "type": "address"
        },
        {
          "indexed": true,
          "internalType": "address",
          "name": "to",
          "type": "address"
        },
        {
          "indexed": true,
          "internalType": "uint256",
          "name": "tokenId",
          "type": "uint256"
        }
      ],
      "name": "Transfer",
      "type": "event"
    },
    {
      "inputs": [
        {
          "internalType": "address",
          "name": "to",
          "type": "address"
        },
        {
          "internalType": "uint256",
          "name": "tokenId",
          "type": "uint256"
        }
      ],
      "name": "approve",
      "outputs": [],
      "stateMutability": "nonpayable",
      "type": "function"
    },
    {
      "inputs": [
        {
          "internalType": "address",
          "name": "owner",
          "type": "address"
        }
      ],
      "name": "balanceOf",
      "outputs": [
        {
          "internalType": "uint256",
          "name": "",
          "type": "uint256"
        }
      ],
      "stateMutability": "view",
      "type": "function"
    },
    {
      "inputs": [
        {
          "internalType": "uint256",
          "name": "tokenId",
          "type": "uint256"
        }
      ],
      "name": "getApproved",
      "outputs": [
        {
          "internalType": "address",
          "name": "",
          "type": "address"
        }
      ],
      "stateMutability": "view",
      "type": "function"
    },
    {
      "inputs": [
        {
          "internalType": "address",
          "name": "owner",
          "type": "address"
        },
        {
          "internalType": "address",
          "name": "operator",
          "type": "address"
        }
      ],
      "name": "isApprovedForAll",
      "outputs": [
        {
          "internalType": "bool",
          "name": "",
          "type": "bool"
        }
      ],
      "stateMutability": "view",
      "type": "function"
    },
    {
      "inputs": [],
      "name": "mintedNFTs",
      "outputs": [
        {
          "internalType": "string[]",
          "name": "",
          "type": "string[]"
        }
      ],
      "stateMutability": "view",
      "type": "function"
    },
    {
      "inputs": [],
      "name": "name",
      "outputs": [
        {
          "internalType": "string",
          "name": "",
          "type": "string"
        }
      ],
      "stateMutability": "view",
      "type": "function"
    },
    {
      "inputs": [
        {
          "internalType": "uint256",
          "name": "tokenId",
          "type": "uint256"
        }
      ],
      "name": "ownerOf",
      "outputs": [
        {
          "internalType": "address",
          "name": "",
          "type": "address"
        }
      ],
      "stateMutability": "view",
      "type": "function"
    },
    {
      "inputs": [
        {
          "internalType": "address",
          "name": "to",
          "type": "address"
        },
        {
          "internalType": "string",
          "name": "_swagger",
          "type": "string"
        }
      ],
      "name": "safeMint",
      "outputs": [
        {
          "internalType": "uint256",
          "name": "",
          "type": "uint256"
        }
      ],
      "stateMutability": "nonpayable",
      "type": "function"
    },
    {
      "inputs": [
        {
          "internalType": "address",
          "name": "from",
          "type": "address"
        },
        {
          "internalType": "address",
          "name": "to",
          "type": "address"
        },
        {
          "internalType": "uint256",
          "name": "tokenId",
          "type": "uint256"
        }
      ],
      "name": "safeTransferFrom",
      "outputs": [],
      "stateMutability": "nonpayable",
      "type": "function"
    },
    {
      "inputs": [
        {
          "internalType": "address",
          "name": "from",
          "type": "address"
        },
        {
          "internalType": "address",
          "name": "to",
          "type": "address"
        },
        {
          "internalType": "uint256",
          "name": "tokenId",
          "type": "uint256"
        },
        {
          "internalType": "bytes",
          "name": "_data",
          "type": "bytes"
        }
      ],
      "name": "safeTransferFrom",
      "outputs": [],
      "stateMutability": "nonpayable",
      "type": "function"
    },
    {
      "inputs": [
        {
          "internalType": "address",
          "name": "operator",
          "type": "address"
        },
        {
          "internalType": "bool",
          "name": "approved",
          "type": "bool"
        }
      ],
      "name": "setApprovalForAll",
      "outputs": [],
      "stateMutability": "nonpayable",
      "type": "function"
    },
    {
      "inputs": [
        {
          "internalType": "bytes4",
          "name": "interfaceId",
          "type": "bytes4"
        }
      ],
      "name": "supportsInterface",
      "outputs": [
        {
          "internalType": "bool",
          "name": "",
          "type": "bool"
        }
      ],
      "stateMutability": "view",
      "type": "function"
    },
    {
      "inputs": [
        {
          "internalType": "uint256",
          "name": "",
          "type": "uint256"
        }
      ],
      "name": "swaggers",
      "outputs": [
        {
          "internalType": "string",
          "name": "",
          "type": "string"
        }
      ],
      "stateMutability": "view",
      "type": "function"
    },
    {
      "inputs": [],
      "name": "symbol",
      "outputs": [
        {
          "internalType": "string",
          "name": "",
          "type": "string"
        }
      ],
      "stateMutability": "view",
      "type": "function"
    },
    {
      "inputs": [
        {
          "internalType": "uint256",
          "name": "tokenId",
          "type": "uint256"
        }
      ],
      "name": "tokenURI",
      "outputs": [
        {
          "internalType": "string",
          "name": "",
          "type": "string"
        }
      ],
      "stateMutability": "view",
      "type": "function"
    },
    {
      "inputs": [
        {
          "internalType": "address",
          "name": "from",
          "type": "address"
        },
        {
          "internalType": "address",
          "name": "to",
          "type": "address"
        },
        {
          "internalType": "uint256",
          "name": "tokenId",
          "type": "uint256"
        }
      ],
      "name": "transferFrom",
      "outputs": [],
      "stateMutability": "nonpayable",
      "type": "function"
    }
  ],
  "bytecode": "0x60806040523480156200001157600080fd5b506040518060400160405280600881526020017f53776167676572730000000000000000000000000000000000000000000000008152506040518060400160405280600481526020017f5357475300000000000000000000000000000000000000000000000000000000815250816000908051906020019062000096929190620000b8565b508060019080519060200190620000af929190620000b8565b505050620001cd565b828054620000c69062000197565b90600052602060002090601f016020900481019282620000ea576000855562000136565b82601f106200010557805160ff191683800117855562000136565b8280016001018555821562000136579182015b828111156200013557825182559160200191906001019062000118565b5b50905062000145919062000149565b5090565b5b80821115620001645760008160009055506001016200014a565b5090565b7f4e487b7100000000000000000000000000000000000000000000000000000000600052602260045260246000fd5b60006002820490506001821680620001b057607f821691505b60208210811415620001c757620001c662000168565b5b50919050565b612dbe80620001dd6000396000f3fe608060405234801561001057600080fd5b50600436106101005760003560e01c80636352211e11610097578063b88d4fde11610066578063b88d4fde146102bf578063c87b56dd146102db578063d204c45e1461030b578063e985e9c51461033b57610100565b80636352211e1461022557806370a082311461025557806395d89b4114610285578063a22cb465146102a357610100565b8063095ea7b3116100d3578063095ea7b3146101a157806323b872dd146101bd57806342842e0e146101d95780635a584af7146101f557610100565b8063016776611461010557806301ffc9a71461012357806306fdde0314610153578063081812fc14610171575b600080fd5b61010d61036b565b60405161011a9190611b5c565b60405180910390f35b61013d60048036038101906101389190611bea565b610444565b60405161014a9190611c32565b60405180910390f35b61015b610526565b6040516101689190611c97565b60405180910390f35b61018b60048036038101906101869190611cef565b6105b8565b6040516101989190611d5d565b60405180910390f35b6101bb60048036038101906101b69190611da4565b61063d565b005b6101d760048036038101906101d29190611de4565b610755565b005b6101f360048036038101906101ee9190611de4565b6107b5565b005b61020f600480360381019061020a9190611cef565b6107d5565b60405161021c9190611c97565b60405180910390f35b61023f600480360381019061023a9190611cef565b610881565b60405161024c9190611d5d565b60405180910390f35b61026f600480360381019061026a9190611e37565b610933565b60405161027c9190611e73565b60405180910390f35b61028d6109eb565b60405161029a9190611c97565b60405180910390f35b6102bd60048036038101906102b89190611eba565b610a7d565b005b6102d960048036038101906102d4919061202f565b610a93565b005b6102f560048036038101906102f09190611cef565b610af5565b6040516103029190611c97565b60405180910390f35b61032560048036038101906103209190612153565b610b9c565b6040516103329190611e73565b60405180910390f35b610355600480360381019061035091906121af565b610c72565b6040516103629190611c32565b60405180910390f35b60606006805480602002602001604051908101604052809291908181526020016000905b8282101561043b5783829060005260206000200180546103ae9061221e565b80601f01602080910402602001604051908101604052809291908181526020018280546103da9061221e565b80156104275780601f106103fc57610100808354040283529160200191610427565b820191906000526020600020905b81548152906001019060200180831161040a57829003601f168201915b50505050508152602001906001019061038f565b50505050905090565b60007f80ac58cd000000000000000000000000000000000000000000000000000000007bffffffffffffffffffffffffffffffffffffffffffffffffffffffff1916827bffffffffffffffffffffffffffffffffffffffffffffffffffffffff1916148061050f57507f5b5e139f000000000000000000000000000000000000000000000000000000007bffffffffffffffffffffffffffffffffffffffffffffffffffffffff1916827bffffffffffffffffffffffffffffffffffffffffffffffffffffffff1916145b8061051f575061051e82610d06565b5b9050919050565b6060600080546105359061221e565b80601f01602080910402602001604051908101604052809291908181526020018280546105619061221e565b80156105ae5780601f10610583576101008083540402835291602001916105ae565b820191906000526020600020905b81548152906001019060200180831161059157829003601f168201915b5050505050905090565b60006105c382610d70565b610602576040517f08c379a00000000000000000000000000000000000000000000000000000000081526004016105f9906122c2565b60405180910390fd5b6004600083815260200190815260200160002060009054906101000a900473ffffffffffffffffffffffffffffffffffffffff169050919050565b600061064882610881565b90508073ffffffffffffffffffffffffffffffffffffffff168373ffffffffffffffffffffffffffffffffffffffff1614156106b9576040517f08c379a00000000000000000000000000000000000000000000000000000000081526004016106b090612354565b60405180910390fd5b8073ffffffffffffffffffffffffffffffffffffffff166106d8610ddc565b73ffffffffffffffffffffffffffffffffffffffff161480610707575061070681610701610ddc565b610c72565b5b610746576040517f08c379a000000000000000000000000000000000000000000000000000000000815260040161073d906123e6565b60405180910390fd5b6107508383610de4565b505050565b610766610760610ddc565b82610e9d565b6107a5576040517f08c379a000000000000000000000000000000000000000000000000000000000815260040161079c90612478565b60405180910390fd5b6107b0838383610f7b565b505050565b6107d083838360405180602001604052806000815250610a93565b505050565b600681815481106107e557600080fd5b9060005260206000200160009150905080546108009061221e565b80601f016020809104026020016040519081016040528092919081815260200182805461082c9061221e565b80156108795780601f1061084e57610100808354040283529160200191610879565b820191906000526020600020905b81548152906001019060200180831161085c57829003601f168201915b505050505081565b6000806002600084815260200190815260200160002060009054906101000a900473ffffffffffffffffffffffffffffffffffffffff169050600073ffffffffffffffffffffffffffffffffffffffff168173ffffffffffffffffffffffffffffffffffffffff16141561092a576040517f08c379a00000000000000000000000000000000000000000000000000000000081526004016109219061250a565b60405180910390fd5b80915050919050565b60008073ffffffffffffffffffffffffffffffffffffffff168273ffffffffffffffffffffffffffffffffffffffff1614156109a4576040517f08c379a000000000000000000000000000000000000000000000000000000000815260040161099b9061259c565b60405180910390fd5b600360008373ffffffffffffffffffffffffffffffffffffffff1673ffffffffffffffffffffffffffffffffffffffff168152602001908152602001600020549050919050565b6060600180546109fa9061221e565b80601f0160208091040260200160405190810160405280929190818152602001828054610a269061221e565b8015610a735780601f10610a4857610100808354040283529160200191610a73565b820191906000526020600020905b815481529060010190602001808311610a5657829003601f168201915b5050505050905090565b610a8f610a88610ddc565b83836111e2565b5050565b610aa4610a9e610ddc565b83610e9d565b610ae3576040517f08c379a0000000000000000000000000000000000000000000000000000000008152600401610ada90612478565b60405180910390fd5b610aef8484848461134f565b50505050565b6060610b0082610d70565b610b3f576040517f08c379a0000000000000000000000000000000000000000000000000000000008152600401610b369061262e565b60405180910390fd5b6000610b496113ab565b90506000815111610b695760405180602001604052806000815250610b94565b80610b73846113c2565b604051602001610b8492919061268a565b6040516020818303038152906040525b915050919050565b6000600782604051610bae91906126ae565b908152602001604051809103902060009054906101000a900460ff1615610c0a576040517f08c379a0000000000000000000000000000000000000000000000000000000008152600401610c0190612737565b60405180910390fd5b6000610c166008611523565b9050600683908060018154018082558091505060019003906000526020600020016000909190919091509080519060200190610c5392919061195e565b50610c5e6008611531565b610c688482611547565b8091505092915050565b6000600560008473ffffffffffffffffffffffffffffffffffffffff1673ffffffffffffffffffffffffffffffffffffffff16815260200190815260200160002060008373ffffffffffffffffffffffffffffffffffffffff1673ffffffffffffffffffffffffffffffffffffffff16815260200190815260200160002060009054906101000a900460ff16905092915050565b60007f01ffc9a7000000000000000000000000000000000000000000000000000000007bffffffffffffffffffffffffffffffffffffffffffffffffffffffff1916827bffffffffffffffffffffffffffffffffffffffffffffffffffffffff1916149050919050565b60008073ffffffffffffffffffffffffffffffffffffffff166002600084815260200190815260200160002060009054906101000a900473ffffffffffffffffffffffffffffffffffffffff1673ffffffffffffffffffffffffffffffffffffffff1614159050919050565b600033905090565b816004600083815260200190815260200160002060006101000a81548173ffffffffffffffffffffffffffffffffffffffff021916908373ffffffffffffffffffffffffffffffffffffffff160217905550808273ffffffffffffffffffffffffffffffffffffffff16610e5783610881565b73ffffffffffffffffffffffffffffffffffffffff167f8c5be1e5ebec7d5bd14f71427d1e84f3dd0314c0f7b2291e5b200ac8c7c3b92560405160405180910390a45050565b6000610ea882610d70565b610ee7576040517f08c379a0000000000000000000000000000000000000000000000000000000008152600401610ede906127c9565b60405180910390fd5b6000610ef283610881565b90508073ffffffffffffffffffffffffffffffffffffffff168473ffffffffffffffffffffffffffffffffffffffff161480610f6157508373ffffffffffffffffffffffffffffffffffffffff16610f49846105b8565b73ffffffffffffffffffffffffffffffffffffffff16145b80610f725750610f718185610c72565b5b91505092915050565b8273ffffffffffffffffffffffffffffffffffffffff16610f9b82610881565b73ffffffffffffffffffffffffffffffffffffffff1614610ff1576040517f08c379a0000000000000000000000000000000000000000000000000000000008152600401610fe89061285b565b60405180910390fd5b600073ffffffffffffffffffffffffffffffffffffffff168273ffffffffffffffffffffffffffffffffffffffff161415611061576040517f08c379a0000000000000000000000000000000000000000000000000000000008152600401611058906128ed565b60405180910390fd5b61106c838383611565565b611077600082610de4565b6001600360008573ffffffffffffffffffffffffffffffffffffffff1673ffffffffffffffffffffffffffffffffffffffff16815260200190815260200160002060008282546110c7919061293c565b925050819055506001600360008473ffffffffffffffffffffffffffffffffffffffff1673ffffffffffffffffffffffffffffffffffffffff168152602001908152602001600020600082825461111e9190612970565b92505081905550816002600083815260200190815260200160002060006101000a81548173ffffffffffffffffffffffffffffffffffffffff021916908373ffffffffffffffffffffffffffffffffffffffff160217905550808273ffffffffffffffffffffffffffffffffffffffff168473ffffffffffffffffffffffffffffffffffffffff167fddf252ad1be2c89b69c2b068fc378daa952ba7f163c4a11628f55a4df523b3ef60405160405180910390a46111dd83838361156a565b505050565b8173ffffffffffffffffffffffffffffffffffffffff168373ffffffffffffffffffffffffffffffffffffffff161415611251576040517f08c379a000000000000000000000000000000000000000000000000000000000815260040161124890612a12565b60405180910390fd5b80600560008573ffffffffffffffffffffffffffffffffffffffff1673ffffffffffffffffffffffffffffffffffffffff16815260200190815260200160002060008473ffffffffffffffffffffffffffffffffffffffff1673ffffffffffffffffffffffffffffffffffffffff16815260200190815260200160002060006101000a81548160ff0219169083151502179055508173ffffffffffffffffffffffffffffffffffffffff168373ffffffffffffffffffffffffffffffffffffffff167f17307eab39ab6107e8899845ad3d59bd9653f200f220920489ca2b5937696c31836040516113429190611c32565b60405180910390a3505050565b61135a848484610f7b565b6113668484848461156f565b6113a5576040517f08c379a000000000000000000000000000000000000000000000000000000000815260040161139c90612aa4565b60405180910390fd5b50505050565b606060405180602001604052806000815250905090565b6060600082141561140a576040518060400160405280600181526020017f3000000000000000000000000000000000000000000000000000000000000000815250905061151e565b600082905060005b6000821461143c57808061142590612ac4565b915050600a826114359190612b3c565b9150611412565b60008167ffffffffffffffff81111561145857611457611f04565b5b6040519080825280601f01601f19166020018201604052801561148a5781602001600182028036833780820191505090505b5090505b60008514611517576001826114a3919061293c565b9150600a856114b29190612b6d565b60306114be9190612970565b60f81b8183815181106114d4576114d3612b9e565b5b60200101907effffffffffffffffffffffffffffffffffffffffffffffffffffffffffffff1916908160001a905350600a856115109190612b3c565b945061148e565b8093505050505b919050565b600081600001549050919050565b6001816000016000828254019250508190555050565b611561828260405180602001604052806000815250611706565b5050565b505050565b505050565b60006115908473ffffffffffffffffffffffffffffffffffffffff16611761565b156116f9578373ffffffffffffffffffffffffffffffffffffffff1663150b7a026115b9610ddc565b8786866040518563ffffffff1660e01b81526004016115db9493929190612c22565b602060405180830381600087803b1580156115f557600080fd5b505af192505050801561162657506040513d601f19601f820116820180604052508101906116239190612c83565b60015b6116a9573d8060008114611656576040519150601f19603f3d011682016040523d82523d6000602084013e61165b565b606091505b506000815114156116a1576040517f08c379a000000000000000000000000000000000000000000000000000000000815260040161169890612aa4565b60405180910390fd5b805181602001fd5b63150b7a0260e01b7bffffffffffffffffffffffffffffffffffffffffffffffffffffffff1916817bffffffffffffffffffffffffffffffffffffffffffffffffffffffff1916149150506116fe565b600190505b949350505050565b6117108383611784565b61171d600084848461156f565b61175c576040517f08c379a000000000000000000000000000000000000000000000000000000000815260040161175390612aa4565b60405180910390fd5b505050565b6000808273ffffffffffffffffffffffffffffffffffffffff163b119050919050565b600073ffffffffffffffffffffffffffffffffffffffff168273ffffffffffffffffffffffffffffffffffffffff1614156117f4576040517f08c379a00000000000000000000000000000000000000000000000000000000081526004016117eb90612cfc565b60405180910390fd5b6117fd81610d70565b1561183d576040517f08c379a000000000000000000000000000000000000000000000000000000000815260040161183490612d68565b60405180910390fd5b61184960008383611565565b6001600360008473ffffffffffffffffffffffffffffffffffffffff1673ffffffffffffffffffffffffffffffffffffffff16815260200190815260200160002060008282546118999190612970565b92505081905550816002600083815260200190815260200160002060006101000a81548173ffffffffffffffffffffffffffffffffffffffff021916908373ffffffffffffffffffffffffffffffffffffffff160217905550808273ffffffffffffffffffffffffffffffffffffffff16600073ffffffffffffffffffffffffffffffffffffffff167fddf252ad1be2c89b69c2b068fc378daa952ba7f163c4a11628f55a4df523b3ef60405160405180910390a461195a6000838361156a565b5050565b82805461196a9061221e565b90600052602060002090601f01602090048101928261198c57600085556119d3565b82601f106119a557805160ff19168380011785556119d3565b828001600101855582156119d3579182015b828111156119d25782518255916020019190600101906119b7565b5b5090506119e091906119e4565b5090565b5b808211156119fd5760008160009055506001016119e5565b5090565b600081519050919050565b600082825260208201905092915050565b6000819050602082019050919050565b600081519050919050565b600082825260208201905092915050565b60005b83811015611a67578082015181840152602081019050611a4c565b83811115611a76576000848401525b50505050565b6000601f19601f8301169050919050565b6000611a9882611a2d565b611aa28185611a38565b9350611ab2818560208601611a49565b611abb81611a7c565b840191505092915050565b6000611ad28383611a8d565b905092915050565b6000602082019050919050565b6000611af282611a01565b611afc8185611a0c565b935083602082028501611b0e85611a1d565b8060005b85811015611b4a5784840389528151611b2b8582611ac6565b9450611b3683611ada565b925060208a01995050600181019050611b12565b50829750879550505050505092915050565b60006020820190508181036000830152611b768184611ae7565b905092915050565b6000604051905090565b600080fd5b600080fd5b60007fffffffff0000000000000000000000000000000000000000000000000000000082169050919050565b611bc781611b92565b8114611bd257600080fd5b50565b600081359050611be481611bbe565b92915050565b600060208284031215611c0057611bff611b88565b5b6000611c0e84828501611bd5565b91505092915050565b60008115159050919050565b611c2c81611c17565b82525050565b6000602082019050611c476000830184611c23565b92915050565b600082825260208201905092915050565b6000611c6982611a2d565b611c738185611c4d565b9350611c83818560208601611a49565b611c8c81611a7c565b840191505092915050565b60006020820190508181036000830152611cb18184611c5e565b905092915050565b6000819050919050565b611ccc81611cb9565b8114611cd757600080fd5b50565b600081359050611ce981611cc3565b92915050565b600060208284031215611d0557611d04611b88565b5b6000611d1384828501611cda565b91505092915050565b600073ffffffffffffffffffffffffffffffffffffffff82169050919050565b6000611d4782611d1c565b9050919050565b611d5781611d3c565b82525050565b6000602082019050611d726000830184611d4e565b92915050565b611d8181611d3c565b8114611d8c57600080fd5b50565b600081359050611d9e81611d78565b92915050565b60008060408385031215611dbb57611dba611b88565b5b6000611dc985828601611d8f565b9250506020611dda85828601611cda565b9150509250929050565b600080600060608486031215611dfd57611dfc611b88565b5b6000611e0b86828701611d8f565b9350506020611e1c86828701611d8f565b9250506040611e2d86828701611cda565b9150509250925092565b600060208284031215611e4d57611e4c611b88565b5b6000611e5b84828501611d8f565b91505092915050565b611e6d81611cb9565b82525050565b6000602082019050611e886000830184611e64565b92915050565b611e9781611c17565b8114611ea257600080fd5b50565b600081359050611eb481611e8e565b92915050565b60008060408385031215611ed157611ed0611b88565b5b6000611edf85828601611d8f565b9250506020611ef085828601611ea5565b9150509250929050565b600080fd5b600080fd5b7f4e487b7100000000000000000000000000000000000000000000000000000000600052604160045260246000fd5b611f3c82611a7c565b810181811067ffffffffffffffff82111715611f5b57611f5a611f04565b5b80604052505050565b6000611f6e611b7e565b9050611f7a8282611f33565b919050565b600067ffffffffffffffff821115611f9a57611f99611f04565b5b611fa382611a7c565b9050602081019050919050565b82818337600083830152505050565b6000611fd2611fcd84611f7f565b611f64565b905082815260208101848484011115611fee57611fed611eff565b5b611ff9848285611fb0565b509392505050565b600082601f83011261201657612015611efa565b5b8135612026848260208601611fbf565b91505092915050565b6000806000806080858703121561204957612048611b88565b5b600061205787828801611d8f565b945050602061206887828801611d8f565b935050604061207987828801611cda565b925050606085013567ffffffffffffffff81111561209a57612099611b8d565b5b6120a687828801612001565b91505092959194509250565b600067ffffffffffffffff8211156120cd576120cc611f04565b5b6120d682611a7c565b9050602081019050919050565b60006120f66120f1846120b2565b611f64565b90508281526020810184848401111561211257612111611eff565b5b61211d848285611fb0565b509392505050565b600082601f83011261213a57612139611efa565b5b813561214a8482602086016120e3565b91505092915050565b6000806040838503121561216a57612169611b88565b5b600061217885828601611d8f565b925050602083013567ffffffffffffffff81111561219957612198611b8d565b5b6121a585828601612125565b9150509250929050565b600080604083850312156121c6576121c5611b88565b5b60006121d485828601611d8f565b92505060206121e585828601611d8f565b9150509250929050565b7f4e487b7100000000000000000000000000000000000000000000000000000000600052602260045260246000fd5b6000600282049050600182168061223657607f821691505b6020821081141561224a576122496121ef565b5b50919050565b7f4552433732313a20617070726f76656420717565727920666f72206e6f6e657860008201527f697374656e7420746f6b656e0000000000000000000000000000000000000000602082015250565b60006122ac602c83611c4d565b91506122b782612250565b604082019050919050565b600060208201905081810360008301526122db8161229f565b9050919050565b7f4552433732313a20617070726f76616c20746f2063757272656e74206f776e6560008201527f7200000000000000000000000000000000000000000000000000000000000000602082015250565b600061233e602183611c4d565b9150612349826122e2565b604082019050919050565b6000602082019050818103600083015261236d81612331565b9050919050565b7f4552433732313a20617070726f76652063616c6c6572206973206e6f74206f7760008201527f6e6572206e6f7220617070726f76656420666f7220616c6c0000000000000000602082015250565b60006123d0603883611c4d565b91506123db82612374565b604082019050919050565b600060208201905081810360008301526123ff816123c3565b9050919050565b7f4552433732313a207472616e736665722063616c6c6572206973206e6f74206f60008201527f776e6572206e6f7220617070726f766564000000000000000000000000000000602082015250565b6000612462603183611c4d565b915061246d82612406565b604082019050919050565b6000602082019050818103600083015261249181612455565b9050919050565b7f4552433732313a206f776e657220717565727920666f72206e6f6e657869737460008201527f656e7420746f6b656e0000000000000000000000000000000000000000000000602082015250565b60006124f4602983611c4d565b91506124ff82612498565b604082019050919050565b60006020820190508181036000830152612523816124e7565b9050919050565b7f4552433732313a2062616c616e636520717565727920666f7220746865207a6560008201527f726f206164647265737300000000000000000000000000000000000000000000602082015250565b6000612586602a83611c4d565b91506125918261252a565b604082019050919050565b600060208201905081810360008301526125b581612579565b9050919050565b7f4552433732314d657461646174613a2055524920717565727920666f72206e6f60008201527f6e6578697374656e7420746f6b656e0000000000000000000000000000000000602082015250565b6000612618602f83611c4d565b9150612623826125bc565b604082019050919050565b600060208201905081810360008301526126478161260b565b9050919050565b600081905092915050565b600061266482611a2d565b61266e818561264e565b935061267e818560208601611a49565b80840191505092915050565b60006126968285612659565b91506126a28284612659565b91508190509392505050565b60006126ba8284612659565b915081905092915050565b7f5468697320626164626f792068617320616c7265616479206265656e206d696e60008201527f7465642e00000000000000000000000000000000000000000000000000000000602082015250565b6000612721602483611c4d565b915061272c826126c5565b604082019050919050565b6000602082019050818103600083015261275081612714565b9050919050565b7f4552433732313a206f70657261746f7220717565727920666f72206e6f6e657860008201527f697374656e7420746f6b656e0000000000000000000000000000000000000000602082015250565b60006127b3602c83611c4d565b91506127be82612757565b604082019050919050565b600060208201905081810360008301526127e2816127a6565b9050919050565b7f4552433732313a207472616e736665722066726f6d20696e636f72726563742060008201527f6f776e6572000000000000000000000000000000000000000000000000000000602082015250565b6000612845602583611c4d565b9150612850826127e9565b604082019050919050565b6000602082019050818103600083015261287481612838565b9050919050565b7f4552433732313a207472616e7366657220746f20746865207a65726f2061646460008201527f7265737300000000000000000000000000000000000000000000000000000000602082015250565b60006128d7602483611c4d565b91506128e28261287b565b604082019050919050565b60006020820190508181036000830152612906816128ca565b9050919050565b7f4e487b7100000000000000000000000000000000000000000000000000000000600052601160045260246000fd5b600061294782611cb9565b915061295283611cb9565b9250828210156129655761296461290d565b5b828203905092915050565b600061297b82611cb9565b915061298683611cb9565b9250827fffffffffffffffffffffffffffffffffffffffffffffffffffffffffffffffff038211156129bb576129ba61290d565b5b828201905092915050565b7f4552433732313a20617070726f766520746f2063616c6c657200000000000000600082015250565b60006129fc601983611c4d565b9150612a07826129c6565b602082019050919050565b60006020820190508181036000830152612a2b816129ef565b9050919050565b7f4552433732313a207472616e7366657220746f206e6f6e20455243373231526560008201527f63656976657220696d706c656d656e7465720000000000000000000000000000602082015250565b6000612a8e603283611c4d565b9150612a9982612a32565b604082019050919050565b60006020820190508181036000830152612abd81612a81565b9050919050565b6000612acf82611cb9565b91507fffffffffffffffffffffffffffffffffffffffffffffffffffffffffffffffff821415612b0257612b0161290d565b5b600182019050919050565b7f4e487b7100000000000000000000000000000000000000000000000000000000600052601260045260246000fd5b6000612b4782611cb9565b9150612b5283611cb9565b925082612b6257612b61612b0d565b5b828204905092915050565b6000612b7882611cb9565b9150612b8383611cb9565b925082612b9357612b92612b0d565b5b828206905092915050565b7f4e487b7100000000000000000000000000000000000000000000000000000000600052603260045260246000fd5b600081519050919050565b600082825260208201905092915050565b6000612bf482612bcd565b612bfe8185612bd8565b9350612c0e818560208601611a49565b612c1781611a7c565b840191505092915050565b6000608082019050612c376000830187611d4e565b612c446020830186611d4e565b612c516040830185611e64565b8181036060830152612c638184612be9565b905095945050505050565b600081519050612c7d81611bbe565b92915050565b600060208284031215612c9957612c98611b88565b5b6000612ca784828501612c6e565b91505092915050565b7f4552433732313a206d696e7420746f20746865207a65726f2061646472657373600082015250565b6000612ce6602083611c4d565b9150612cf182612cb0565b602082019050919050565b60006020820190508181036000830152612d1581612cd9565b9050919050565b7f4552433732313a20746f6b656e20616c7265616479206d696e74656400000000600082015250565b6000612d52601c83611c4d565b9150612d5d82612d1c565b602082019050919050565b60006020820190508181036000830152612d8181612d45565b905091905056fea2646970667358221220b0b30148c747aac2c86e23baa9c421c0e35376c063063b684f046ec4fea5f2ff64736f6c63430008090033",
  "linkReferences": {},
  "deployedLinkReferences": {}
}